:020000040800F2
:1000000000060020E1020008E3020008E302000805
:10001000E3020008E3020008E3020008E30200082C
:10002000E3020008E3020008E3020008192B0008BD
:10003000E3020008E3020008E3020008E30200080C
:10004000E3020008E3020008E3020008E3020008FC
:10005000E3020008E3020008E3020008E3020008EC
:10006000E3020008E3020008E302000801110008AF
:10007000291100085511000881110008AD11000870
:10008000D511000801120008E3020008E30200088D
:10009000E3020008E3020008E3020008E3020008AC
:1000A000E3020008E3020008E3020008E30200089C
:1000B000E3020008E3020008E3020008E30200088C
:1000C000E3020008E3020008E3020008E30200087C
:1000D000E3020008E3020008E3020008E30200086C
:1000E000E3020008E3020008E3020008E30200085C
:1000F000E3020008E3020008E30200082D120008F2
:10010000E3020008E302000801430008E3020008DC
:10011000E3020008E3020008E3020008E30200082B
:100120005912000881120008AD120008D912000807
:1001300005130008E3020008E3020008E3020008D8
:10014000E3020008E3020008E3020008E3020008FB
:100150002D1300085913000885130008E302000856
:10016000E3020008E3020008E3020008E3020008DB
:10017000E302000805370008E3020008E302000874
:10018000E3020008E3020008E3020008E3020008BB
:10019000E3020008E3020008E3020008E3020008AB
:1001A000E3020008E3020008E3020008E30200089B
:1001B000E3020008E3020008E3020008E30200088B
:1001C000E3020008E3020008E3020008E30200087B
:1001D000E3020008F1360008E3020008E302000829
:1001E000E3020008E3020008E3020008E30200085B
:1001F000E3020008E3020008E3020008E30200084B
:10020000E3020008E3020008E3020008E30200083A
:10021000E3020008E3020008E3020008E30200082A
:10022000E3020008E3020008E3020008E30200081A
:10023000E3020008E3020008E3020008E30200080A
:10024000E3020008E3020008E3020008E3020008FA
:10025000E3020008E3020008E3020008E3020008EA
:10026000E3020008E3020008E3020008E3020008DA
:10027000E3020008E3020008E3020008E3020008CA
:10028000E3020008E3020008E3020008E3020008BA
:10029000E3020008E3020008E3020008E3020008AA
:1002A000E3020008E3020008E3020008E30200089A
:1002B000E3020008E3020008E3020008E30200088A
:1002C000E3020008E3020008E3020008E30200087A
:1002D000E3020008E3020008E3020008E30200086A
:1002E00002E000F000F8FEE772B6374880F30888B5
:1002F000364880F3098836483649086040F20000E5
:10030000CCF200004EF63471CEF200010860BFF36B
:100310004F8FBFF36F8F40F20000C0F2F0004EF637
:100320008851CEF200010860BFF34F8FBFF36F8F8B
:100330004FF00000E1EE100A4EF63C71CEF20001E3
:100340000860062080F31488BFF36F8F02F046FC2C
:1003500003F08EFD4FF055301F491B4A91423CBFC0
:1003600041F8040BFAE71D49184A91423CBF41F895
:10037000040BFAE71A491B4A1B4B9A423EBF51F83D
:10038000040B42F8040BF8E700201849184A914280
:100390003CBF41F8040BFAE702F05EFC03F0ECFD11
:1003A000144C154DAC4203DA54F8041B8847F9E7A6
:1003B00000F042F8114C124DAC4203DA54F8041B21
:1003C0008847F9E702F046BC000600200022002022
:1003D0000000000808ED00E00000002000060020FA
:1003E000F0470008002200205C220020602200204C
:1003F00004440020E0020008E0020008E0020008D7
:10040000E00200082DE9F04F2DED108AC1F80CD064
:10041000D0F80CD0BDEC108ABDE8F08F002383F338
:1004200011882846A047002001F026FEFEE701F0D3
:10043000ABFD00DFFEE7000038B500F037FC00F050
:10044000B1FD02F025FB054602F058FB0446C0B999
:100450000E4B9D4217D001339D4241F2883512BFA9
:10046000044600250124002002F01CFB0CB100F022
:1004700073F800F06BFD284600F01CF900F06CF8F2
:10048000F9E70025EFE70546EDE700BF010007B0FB
:1004900008B500F0DDFBA0F120035842584108BD2B
:1004A00007B5042101900DEB010000F0EFFB03B054
:1004B0005DF804FB38B5302383F3118817480368CF
:1004C0000BB101F0A5FE0023154A4FF47A711348D1
:1004D00001F094FE002383F31188124C236813B1BA
:1004E0002368013B2360636813B16368013B636069
:1004F0000D4D2B7833B963687BB9022000F090FC76
:10050000322363602B78032B07D163682BB9022059
:1005100000F086FC4FF47A73636038BD60220020DF
:10052000B50400088023002078220020084B1870B2
:1005300003280CD8DFE800F008050208022000F0CC
:1005400067BC022000F05ABC024B00225A60704780
:100550007822002080230020F8B5504B504A1C46DA
:100560001968013100F0998004339342F8D1626830
:100570004C4B9A4240F291804B4B9B6803F10063D5
:1005800003F5C0239A4280F08880002000F0A8FB89
:100590000220FFF7CBFF454B0021D3F8E820C3F83A
:1005A000E810D3F81021C3F81011D3F81021D3F8B4
:1005B000EC20C3F8EC10D3F81421C3F81411D3F8CD
:1005C0001421D3F8F020C3F8F010D3F81821C3F8A1
:1005D0001811D3F81821D3F8802042F00062C3F834
:1005E0008020D3F8802022F00062C3F88020D3F866
:1005F0008020D3F8802042F00072C3F88020D3F826
:10060000802022F00072C3F88020D3F8803072B6C8
:100610004FF0E023C3F8084DD4E90004BFF34F8F37
:10062000BFF36F8F224AC2F88410BFF34F8F536914
:1006300023F480335361BFF34F8FD2F8803043F6F9
:10064000E076C3F3C905C3F34E335B0103EA060C3E
:1006500029464CEA81770139C2F87472F9D2203BFD
:1006600013F1200FF2D1BFF34F8FBFF36F8FBFF3A2
:100670004F8FBFF36F8F536923F40033536100230F
:10068000C2F85032BFF34F8FBFF36F8F302383F325
:100690001188854680F308882047F8BD00000608C9
:1006A00020000608FFFF0508002200200044025831
:1006B00000ED00E02DE9F04F95B0DFF8D892202250
:1006C000FF21029004A8D9F8085000F0E9FBA84ADD
:1006D0001378A3B90121A74811700360302383F375
:1006E000118803680BB101F093FD0023A24A4FF477
:1006F0007A71A04801F082FD002383F31188029BE8
:1007000013B19E4B029A1A609D4A1378032B03D0B3
:1007100000231370994A53604FF0000B029C5E4611
:10072000DA46CDF804B0012000F072FB24B1934BFF
:100730001B68002B00F02882002000F089FAB0F13D
:100740000008F3DB012000F059FBA8F121031F2B67
:10075000E9D801A252F823F0D9070008F5070008EC
:100760008308000827070008270700082707000854
:100770000D090008FF0A0008F10900084D0A0008E9
:10078000730A0008990A000827070008AB0A000846
:10079000CF0A0008470B0008610800082707000877
:1007A0008F0B0008E507000861080008270700080C
:1007B0004D0A000827070008270700082707000838
:1007C0002707000827070008270700082707000851
:1007D00027070008830800080220FFF759FE0028B9
:1007E00040F0FF81029B02216648BBF1000F08BF69
:1007F0001C4640E04FF47A7000F02AFA071EF1DB45
:100800000220FFF745FE0028ECD0013F052F00F243
:10081000EA81DFE807F003070A0D10330520FFF730
:100820003FFE14E0D9F80000F9E7D9F80400F6E734
:10083000D9F80800F3E74FF01C08404608F1040817
:1008400000F050FAFFF72CFEB8F12C0FF5D1012083
:10085000019B4FF0000A00FA07F71F43FBB2019318
:1008600000F06AFB2EB1019B03F00B030B2B08BFBA
:1008700000240221444800F009FA54E7D9F80C009A
:10088000CDE7002EAED0019B03F00B030B2BA9D1BB
:100890000220FFF7FDFD07460028A3D00120002617
:1008A00000F01EFA0220FFF741FE1FFA86FB5846B1
:1008B00000F026FA044688B1A8F1400258460136F5
:1008C0005142514100F02CFA0028EED1BB460446BB
:1008D00002212E483E4600F0D9F924E725460120A2
:1008E000FFF724FED9F80830AB4207D9284600F0BC
:1008F000F9F9013040F07A810435F3E70025204B07
:10090000BB463E461D701D4B5D60A9E7002E3FF4BF
:1009100069AF019B03F00B030B2B7FF463AF022045
:10092000FFF704FE322000F093F9B0F10008FFF663
:1009300059AF18F003077FF455AF08EB0503D9F85A
:10094000082093423FF64EAFB8F5807F3FF74AAF9D
:100950000F4BB84503931FDD4FF47A7000F078F920
:100960000028FFF63FAF039B013703F8010BF0E7C8
:100970007C23002060220020B50400088023002092
:100980007822002098430008904300089443000810
:100990007C22002000220020C820FFF779FD0746B6
:1009A00000283FF41FAF1F2D11D8C5F1200204AB62
:1009B00025F003008F494245184428BF4246039260
:1009C00000F048FA039AFF218A4800F069FA4FEADA
:1009D000A803C8F3870287492846039300F068FA02
:1009E000064600283FF474AF039B05EB830537E709
:1009F0000220FFF74DFD00283FF4F4AE00F0AEF901
:100A000000283FF4EFAE0027B846D9F80830BB42C3
:100A100018D91F2F11D8049B01330ED027F00303E0
:100A200014AA134453F8403C0C93404604220CA9EA
:100A3000043700F04FFB8046E7E7384600F052F9F4
:100A40000C90F2E74046FFF72BFD09E700236421F5
:100A50000CA80C9300F010F900287FF4C3AE02201C
:100A6000FFF716FD00283FF4BDAE0C9800F06CF9BE
:100A7000E9E7002364210CA80C9300F0FDF800289E
:100A80007FF4B0AE0220FFF703FD00283FF4AAAECA
:100A90000C9800F05BF9D6E70220FFF7F9FC00287C
:100AA0003FF4A0AE00F06AF9CDE70220FFF7F0FCBA
:100AB00000283FF497AE0CA9142000F065F90390CC
:100AC000FFF7EEFC03990CA800F0E0F8C8E602205E
:100AD000FFF7DEFC00283FF485AE474B0CAF03F177
:100AE000100C1868083353F8041C3A46634503C2D7
:100AF0001746F6D11020FFF7D3FC1021E3E7322090
:100B000000F0A6F8071EFFF66DAEBB077FF46AAED5
:100B100007EB0A03D9F8082093423FF663AE0220A0
:100B2000FFF7B6FC00283FF45DAE27F003075744FB
:100B3000BA453FF495AE50460AF1040A00F0D2F8E7
:100B4000FFF7AEFCF4E74FF47A70FFF7A1FC002842
:100B50003FF448AE00F002F9002849D0049B01336D
:100B60000BD0082204A9002000F0A2F900283FD0F1
:100B70002022FF2104A800F093F92048022100F070
:100B800085F81F4801F07EFA15B0BDE8F08F002E01
:100B90003FF428AE019B03F00B030B2B7FF422AE36
:100BA000002364210CA80C9300F066F80746002887
:100BB0007FF418AE0220FFF76BFC804600283FF45C
:100BC00011AE02210D4800F061F841F2883001F0C9
:100BD00059FA0C9800F0E4F946463C4600F0ACF9AE
:100BE000A1E506463CE64FF0000AFBE5BB466FE692
:100BF00037466DE67C2200207C43000890430008C5
:100C0000A08601000F4B70B51B780C460133DBB298
:100C1000012B11D80C4D4FF47A732968A2FB0332D3
:100C200022460E6A01462846B047844204D1074B4B
:100C3000002201201A7070BD4FF4FA7001F022FA00
:100C40000020F8E710220020B0260020B423002066
:100C5000002307B5024601210DF107008DF807308A
:100C6000FFF7D0FF20B19DF8070003B05DF804FB4B
:100C70004FF0FF30F9E700000A46042108B5FFF7FE
:100C8000C1FF80F00100C0B2404208BD30B4054C45
:100C90000A46014623682046DD69034BAC4630BC5A
:100CA000604700BFB0260020A086010070B50A4E44
:100CB00000240A4D01F004FD308028683388834207
:100CC00008D901F0F9FC2B6804440133B4F5C02FB6
:100CD0002B60F2D370BD00BFB62300208823002014
:100CE00001F0C8BD00F1006000F5C0200068704749
:100CF00000F10060920000F5C02001F03DBD000051
:100D0000054B1A68054B1B889B1A834202D9104475
:100D100001F0D2BC0020704788230020B6230020B9
:100D200038B50446074D29B128682044BDE838404D
:100D300001F0DABC2868204401F0C4FC0028F3D09C
:100D400038BD00BF882300200020704700F1FF500D
:100D500000F58F10D0F8000870470000064991F8A0
:100D6000243033B100230822086A81F82430FFF7C9
:100D7000BFBF0120704700BF8C230020014B1868C3
:100D8000704700BF0010005C194B01380322084473
:100D900070B51D68174BC5F30B042D0C1E88A642B9
:100DA0000BD15C680A46013C824213460FD214F90B
:100DB000016F4EB102F8016BF6E7013A03F1080347
:100DC000ECD181420B4602D22C2203F8012B0424E1
:100DD000094A1688AE4204D1984284BF967803F837
:100DE000016B013C02F10402F3D1581A70BD00BF3F
:100DF0000010005C14220020C8430008022803D120
:100E0000024B4FF480129A61704700BF00100258E5
:100E1000022802D1014B10229A617047001002583B
:100E2000022804D1024A536983F0100353617047CA
:100E30000010025870B504464FF47A764CB1412C3C
:100E4000254628BF412506FB05F0641B01F01AF971
:100E5000F4E770BD002310B5934203D0CC5CC454BA
:100E60000133F9E710BD0000013810B510F9013F5A
:100E70003BB191F900409C4203D11AB10131013AD2
:100E8000F4E71AB191F90020981A10BD1046FCE75A
:100E900003460246D01A12F9011B0029FAD1704705
:100EA00002440346934202D003F8011BFAE770475D
:100EB0002DE9F8431F4D14460746884695F824202F
:100EC00052BBDFF870909CB395F824302BB92022E8
:100ED000FF2148462F62FFF7E3FF95F824004146C3
:100EE000C0F1080205EB8000A24228BF2246D6B21C
:100EF0009200FFF7AFFF95F82430A41B17441E445F
:100F00009044E4B2F6B2082E85F82460DBD1FFF7F6
:100F100025FF0028D7D108E02B6A03EB8203834228
:100F2000CFD0FFF71BFF0028CBD10020BDE8F8830E
:100F30000120FBE78C230020024B1A78024B1A7029
:100F4000704700BFB42300201022002010B5114CC0
:100F5000114800F0B1FB21460F4800F0D9FB24688E
:100F60004FF47A70D4F89020D2F8043843F002039A
:100F7000C2F80438FFF75EFF0849204600F0D6FCAF
:100F8000D4F89020D2F8043823F00203C2F80438D1
:100F900010BD00BF84450008B02600208C45000825
:100FA000704700002DE9F04771B6464B01201D68DF
:100FB000454BB3F8008000231A46194600F08AFA20
:100FC0000446802001F0F4FC0746002862D0002C83
:100FD00060D03E4EADB24FF0800A7369284643F0B0
:100FE000C0637361D6F8143143F0C063C6F814319E
:100FF00001F062FB05EB080200FB05F34FF4D06C37
:1010000050434FF03D0E984233D93269520144D4D7
:10101000D6F81021510140D4216803F100628A60A2
:101020002268D7602268C2F804A02268C2F800C013
:10103000D4F80090D9F8002042F00102C9F800204D
:10104000D4F80090D9F8002022F01E02C9F8002040
:10105000D4F80090D9F80020D207FBD494F80C9073
:10106000803361680EFA09F20A60CCE7002001F0D3
:1010700001FC204600F06EFA384601F0CFFC134B1D
:101080005A6942F0C0625A61D3F8142142F0C0623A
:10109000C3F8142161B6BDE8F0870D4B9A6A42F49B
:1010A00000729A629A6A42F400429A6261B600261D
:1010B000012001F0DFFBB045D8D9A819013601F0B5
:1010C00013FBF8E788230020B623002000200052FD
:1010D00000ED00E030B50A44084D91420DD011F802
:1010E000013B5840082340F30004013B2C4013F01F
:1010F000FF0384EA5000F6D1EFE730BD2083B8ED5E
:1011000008B5074B074A196801F03D01996053681B
:101110000BB190689847BDE8084001F035BD00BFAD
:1011200000000240B823002008B5084B196889095F
:1011300001F03D018A019A60054AD3680BB110693C
:101140009847BDE8084001F01FBD00BF0000024005
:10115000B823002008B5084B1968090C01F03D01BF
:101160000A049A60054A53690BB190699847BDE833
:10117000084001F009BD00BF00000240B823002074
:1011800008B5084B1968890D01F03D018A059A6080
:10119000054AD3690BB1106A9847BDE8084001F0D1
:1011A000F3BC00BF00000240B823002008B5074B85
:1011B000074A596801F03D01D960536A0BB1906A42
:1011C0009847BDE8084001F0DFBC00BF00000240C6
:1011D000B823002008B5084B5968890901F03D0182
:1011E0008A01DA60054AD36A0BB1106B9847BDE8F3
:1011F000084001F0C9BC00BF00000240B823002035
:1012000008B5084B5968090C01F03D010A04DA6081
:10121000054A536B0BB1906B9847BDE8084001F04D
:10122000B3BC00BF00000240B823002008B5084B43
:101230005968890D01F03D018A05DA60054AD36BD2
:101240000BB1106C9847BDE8084001F09DBC00BF91
:1012500000000240B823002008B5074B074A196870
:1012600001F03D019960536C0BB1906C9847BDE85B
:10127000084001F089BC00BF00040240B8230020F0
:1012800008B5084B1968890901F03D018A019A6087
:10129000054AD36C0BB1106D9847BDE8084001F0CA
:1012A00073BC00BF00040240B823002008B5084BFF
:1012B0001968090C01F03D010A049A60054A536D52
:1012C0000BB1906D9847BDE8084001F05DBC00BFD0
:1012D00000040240B823002008B5084B1968890DA6
:1012E00001F03D018A059A60054AD36D0BB1106E7D
:1012F0009847BDE8084001F047BC00BF0004024029
:10130000B823002008B5074B074A596801F03D0192
:10131000D960536E0BB1906E9847BDE8084001F05C
:1013200033BC00BF00040240B823002008B5084BBE
:101330005968890901F03D018A01DA60054AD36ED6
:101340000BB1106F9847BDE8084001F01DBC00BF0D
:1013500000040240B823002008B5084B5968090C66
:1013600001F03D010A04DA60054A536F0BB1906F3A
:101370009847BDE8084001F007BC00BF00040240E8
:10138000B823002008B5084B5968890D01F03D01CC
:101390008A05DA60054AD36F13B1D2F88000984706
:1013A000BDE8084001F0F0BB00040240B823002073
:1013B00000230C4910B51A460B4C0B6054F823005F
:1013C000026001EB430004334260402BF6D1074A30
:1013D0004FF0FF339360D360C2F80834C2F80C3486
:1013E00010BD00BFB8230020D84300080000024011
:1013F0000F28F8B510D9102810D0112811D01228B4
:1014000008D10F240720DFF8C8E00126DEF80050DD
:10141000A04208D9002653E00446F4E70F24002038
:10142000F1E70724FBE706FA00F73D424AD1264CD4
:101430004FEA001C3D4304EB00160EEBC000CEF853
:101440000050C0E90123FBB273B12048D0F8D83076
:1014500043F00103C0F8D830D0F8003143F0010365
:10146000C0F80031D0F8003117F47F4F0ED0174884
:10147000D0F8D83043F00203C0F8D830D0F80031AB
:1014800043F00203C0F80031D0F8003154F80C00EA
:10149000036823F01F030360056815F00105FBD105
:1014A00004EB0C033D2493F80CC05F6804FA0CF4C1
:1014B0003C6021240560446112B1987B00F054F82F
:1014C0003046F8BD0130A3E7D84300080044025875
:1014D000B823002010B5302484F31188FFF788FF6B
:1014E000002383F3118810BD10B50446807B00F003
:1014F00051F801231549627B03FA02F20B6823EAD3
:101500000203DAB20B6072B9114AD2F8D81021F096
:101510000101C2F8D810D2F8001121F00101C2F87F
:101520000011D2F8002113F47F4F0ED1084BD3F8ED
:10153000D82022F00202C3F8D820D3F8002122F0EC
:101540000202C3F80021D3F8003110BDB8230020F7
:101550000044025808B5302383F31188FFF7C4FF15
:10156000002383F3118808BD090100F160430122C3
:1015700003F56143C9B283F8001300F01F039A40DA
:1015800043099B0003F1604303F56143C3F88021E5
:101590001A60704700F01F0301229A40430900F1CE
:1015A00060409B0000F5614003F1604303F5614337
:1015B000C3F88020C3F88021002380F800337047EF
:1015C000026843681143016003B118477047000087
:1015D00013B5406B00F58054D4F8A4381A6811781C
:1015E000042914D1017C022911D11979012312890E
:1015F0008B4013420BD101A94C3002F0B5F9D4F85D
:10160000A4480246019B2179206800F0DFF902B06E
:1016100010BD0000143002F037B900004FF0FF3366
:10162000143002F031B900004C3002F009BA000069
:101630004FF0FF334C3002F003BA0000143002F0D8
:1016400005B900004FF0FF31143002F0FFB8000080
:101650004C3002F0D5B900004FF0FF324C3002F0B0
:10166000CFB900000020704710B500F58054D4F8C1
:10167000A4381A681178042917D1017C022914D1E1
:101680005979012352898B4013420ED1143002F054
:1016900097F8024648B1D4F8A4484FF440736179F2
:1016A0002068BDE8104000F07FB910BD406BFFF727
:1016B000DBBF0000704700007FB5124B01250426F8
:1016C000044603600023057400F184024360294648
:1016D000C0E902330C4B0290143001934FF4407375
:1016E000009602F049F8094B04F69442294604F1A9
:1016F0004C000294CDE900634FF4407302F010F9FE
:1017000004B070BDD8440008AD160008D11500081B
:101710000A68302383F311880B790B3342F82300D6
:101720004B79133342F823008B7913B10B3342F812
:10173000230000F58053C3F8A4180223037400208B
:1017400080F311887047000038B5037F044613B159
:1017500090F85430ABB90125201D0221FFF730FF6E
:1017600004F114006FF00101257700F0B3FC04F1DF
:101770004C0084F854506FF00101BDE8384000F08F
:10178000A9BC38BD10B5012104460430FFF718FF8D
:101790000023237784F8543010BD000038B5044688
:1017A0000025143002F000F804F14C00257702F017
:1017B000CFF8201D84F854500121FFF701FF204687
:1017C000BDE83840FFF750BF90F8803003F0600369
:1017D000202B06D190F881200023212A03D81F2A2C
:1017E00006D800207047222AFBD1C0E91D3303E050
:1017F000034A426707228267C3670120704700BF20
:101800002C22002037B500F58055D5F8A4381A6889
:10181000117804291AD1017C022917D119790123E1
:1018200012898B40134211D100F14C04204602F082
:101830004FF958B101A9204602F096F8D5F8A4480E
:101840000246019B2179206800F0C0F803B030BD4A
:1018500001F10B03F0B550F8236085B004460D4646
:10186000FEB1302383F3118804EB8507301D082176
:10187000FFF7A6FEFB6806F14C005B691B681BB115
:10188000019002F07FF8019803A902F06DF802467A
:1018900048B1039B2946204600F098F8002383F3C3
:1018A000118805B0F0BDFB685A691268002AF5D0AE
:1018B0001B8A013B1340F1D104F18002EAE70000EA
:1018C000133138B550F82140ECB1302383F311883F
:1018D00004F58053D3F8A4281368527903EB8203EC
:1018E000DB689B695D6845B104216018FFF768FEFD
:1018F000294604F1140001F06DFF2046FFF7B4FE05
:10190000002383F3118838BD7047000001F03ABA14
:1019100001234022002110B5044600F8303BFFF7B8
:10192000BFFA0023C4E9013310BD000010B5302315
:10193000044683F311882422416000210C30FFF714
:10194000AFFA204601F040FA02230020237080F312
:10195000118810BD70B500EB8103054650690E4635
:101960001446DA6018B110220021FFF799FAA06935
:1019700018B110220021FFF793FA31462846BDE83E
:10198000704001F027BB000083682022002103F093
:10199000011310B5044683601030FFF781FA20462A
:1019A000BDE8104001F0A2BBF0B4012500EB8104BA
:1019B00047898D40E4683D43A46945812360002345
:1019C000A2606360F0BC01F0BFBB0000F0B4012571
:1019D00000EB810407898D40E4683D43646905811B
:1019E00023600023A2606360F0BC01F035BC0000FE
:1019F00070B5022300250446242203702946C0F84E
:101A000088500C3040F8045CFFF74AFA204684F80E
:101A1000705001F073FA63681B6823B129462046B1
:101A2000BDE87040184770BD0378052B10B504461B
:101A30000AD080F88C300523037043681B680BB113
:101A4000042198470023A36010BD000001780529F8
:101A500006D190F88C20436802701B6803B11847C8
:101A60007047000070B590F87030044613B1002341
:101A700080F8703004F18002204601F05BFB63685F
:101A80009B68B3B994F8803013F0600535D000211D
:101A9000204601F04DFE0021204601F03DFE636826
:101AA0001B6813B1062120469847062384F870303E
:101AB00070BD204698470028E4D0B4F88630A26F65
:101AC0009A4288BFA36794F98030A56F002B4FF02E
:101AD000300380F20381002D00F0F280092284F8A7
:101AE000702083F3118800212046D4E91D23FFF7DD
:101AF0006DFF002383F31188DAE794F8812003F067
:101B00007F0343EA022340F20232934200F0C58091
:101B100021D8B3F5807F48D00DD8012B3FD0022BC0
:101B200000F09380002BB2D104F188026267022298
:101B3000A267E367C1E7B3F5817F00F09B80B3F54F
:101B4000407FA4D194F88230012BA0D1B4F8883022
:101B500043F0020332E0B3F5006F4DD017D8B3F570
:101B6000A06F31D0A3F5C063012B90D863682046E5
:101B700094F882205E6894F88310B4F88430B047FB
:101B8000002884D0436863670368A3671AE0B3F54D
:101B9000106F36D040F6024293427FF478AF5C4B30
:101BA00063670223A3670023C3E794F88230012B05
:101BB0007FF46DAFB4F8883023F00203A4F88830C6
:101BC000C4E91D55E56778E7B4F88030B3F5A06F38
:101BD0000ED194F88230204684F88A3001F0ECF976
:101BE00063681B6813B101212046984703232370C3
:101BF0000023C4E91D339CE704F18B0363670123D1
:101C0000C3E72378042B10D1302383F311882046B7
:101C1000FFF7BAFE85F311880321636884F88B50BF
:101C200021701B680BB12046984794F88230002B36
:101C3000DED084F88B300423237063681B68002B8C
:101C4000D6D0022120469847D2E794F88430204627
:101C50001D0603F00F010AD501F05EFA012804D039
:101C600002287FF414AF2B4B9AE72B4B98E701F037
:101C700045FAF3E794F88230002B7FF408AF94F82C
:101C8000843013F00F01B3D01A06204602D501F0BC
:101C900067FDADE701F058FDAAE794F88230002B0C
:101CA0007FF4F5AE94F8843013F00F01A0D01B063A
:101CB000204602D501F03CFD9AE701F02DFD97E7A3
:101CC000142284F8702083F311882B462A46294673
:101CD0002046FFF769FE85F31188E9E65DB115221C
:101CE00084F8702083F3118800212046D4E91D2355
:101CF000FFF75AFEFDE60B2284F8702083F311886B
:101D00002B462A4629462046FFF760FEE3E700BF40
:101D100008450008004500080445000838B590F85B
:101D200070300446002B3ED0063BDAB20F2A34D87E
:101D30000F2B32D8DFE803F037313108223231314E
:101D40003131313131313737856FB0F886309D42CE
:101D500014D2C3681B8AB5FBF3F203FB12556DB9AD
:101D6000302383F311882B462A462946FFF72EFE9F
:101D700085F311880A2384F870300EE0142384F868
:101D80007030302383F31188002320461A46194609
:101D9000FFF70AFE002383F3118838BDC36F03B138
:101DA00098470023E7E70021204601F0C1FC00210D
:101DB000204601F0B1FC63681B6813B10621204680
:101DC00098470623D7E7000010B590F87030044616
:101DD000142B29D017D8062B05D001D81BB110BD64
:101DE000093B022BFBD80021204601F0A1FC002179
:101DF000204601F091FC63681B6813B10621204660
:101E00009847062319E0152BE9D10B2380F8703091
:101E1000302383F3118800231A461946FFF7D6FDB5
:101E2000002383F31188DAE7C3689B695B68002BA2
:101E3000D5D1C36F03B19847002384F87030CEE743
:101E400000238268037503691B6899689142FBD27D
:101E50005A680360426010605860704700238268CF
:101E6000037503691B6899689142FBD85A6803603F
:101E7000426010605860704708B50846302383F30D
:101E800011880A7D0023052A06D8DFE802F00B0539
:101E90000503120E826913604FF0FF338361FFF771
:101EA000CFFF002383F3118808BD82699368013353
:101EB0009360D0E9003213605A60EDE7FFF7C0BFCE
:101EC00038B50A4B1C68DD682875226853601A60B3
:101ED0000122DC60A3682275934201D100F018FE54
:101EE00029462046BDE83840FEF78CBA4024002041
:101EF0000C4B30B5DD684B1C87B004460FD02B4629
:101F0000094A684600F07AF92046FFF7D9FF009B9E
:101F100013B1684600F07CF9A86907B030BDFFF73F
:101F2000CFFFF9E740240020791E000870B50F4E5E
:101F300004468161F36881689A68914203D8BDE8DC
:101F40007040FFF77DBF1846FFF788FF836805469E
:101F5000012B01D100F0DEFD012329462046F4606B
:101F60002375BDE87040FEF74DBA00BF4024002045
:101F7000044B1A68DB6890689B68984294BF002005
:101F8000012070474024002038B50B4B1C68DD68E9
:101F9000226853601A600122DC602275AB689342AC
:101FA00001D100F0B7FD2846FFF758FF0146204653
:101FB000BDE83840FEF726BA4024002038B501239A
:101FC000084C00252370656001F0BEFD01F0E4FDC2
:101FD0000549064801F0B8FE0223237085F31188F5
:101FE00038BD00BFA826002010450008402400206E
:101FF00000F044B9034A516853685B1A9842FBD811
:10200000704700BF001000E08B60022308610846A3
:102010008B8270478368A3F1840243F8142C026911
:1020200043F8442C426943F8402C094A43F8242CD5
:10203000C268A3F1200043F8182C022203F80C2CEC
:10204000002203F80B2C034A43F8102C704700BF02
:102050001D0400084024002008B5FFF7DBFFBDE8A1
:102060000840FFF72BBF0000024BDB6898610F2090
:10207000FFF726BF40240020302383F31188FFF7A9
:10208000F3BF000008B50146302383F31188082010
:10209000FFF72EFF002383F3118808BD064BDB6892
:1020A00039B1426818605A60136043600420FFF73A
:1020B0001FBF4FF0FF307047402400200368984254
:1020C00006D01A680260506018469961FFF7F6BEA4
:1020D0007047000038B504460D462068844200D1A0
:1020E00038BD036823605C608561FFF7E7FEF4E7B5
:1020F000036810B59C68A2420CD85C688A600B60CB
:102100004C602160596099688A1A9A604FF0FF33D9
:10211000836010BD121B1B68ECE700000A2938BF62
:102120000A2170B504460D460A26601901F006FD25
:1021300001F0EEFC041BA54203D8751C04462E4694
:10214000F3E70A2E04D90120BDE8704001F03CBE3F
:1021500070BD0000F8B5144B0D460A2A4FF00A076F
:10216000D96103F11001826038BF0A224160196908
:102170001446016048601861A81801F0CFFC01F016
:10218000C7FC431B0646A34206D37C1C28192746DE
:10219000354601F0D3FCF2E70A2F04D90120BDE84F
:1021A000F84001F011BEF8BD40240020F8B5064605
:1021B0000D4601F0ADFC0F4A134653F8107F9F42C5
:1021C00006D12A4601463046BDE8F840FFF7C2BFB7
:1021D000D169BB68441A2C1928BF2C46A34202D9E6
:1021E0002946FFF79BFF224631460348BDE8F840E9
:1021F000FFF77EBF4024002050240020C0E90323C5
:10220000002310B45DF8044B4361FFF7CFBF00001B
:1022100010B5194C236998420DD08168D0E900327D
:1022200013605A609A680A449A60002303604FF072
:10223000FF33A36110BD0268234643F8102F53609B
:102240000022026022699A4203D1BDE8104001F0E9
:102250006FBC936881680B44936001F059FC22695C
:10226000E1699268441AA242E4D91144BDE81040E1
:10227000091AFFF753BF00BF402400202DE9F047A3
:10228000DFF8BC8008F110072C4ED8F8105001F090
:102290003FFCD8F81C40AA68031B9A423ED814445D
:1022A0004FF00009D5E90032C8F81C4013605A60AD
:1022B000C5F80090D8F81030B34201D101F038FCD5
:1022C00089F31188D5E9033128469847302383F3F1
:1022D00011886B69002BD8D001F01AFC6A69A0EB59
:1022E000040982464A450DD2022001F06DFD00220C
:1022F000D8F81030B34208D151462846BDE8F0471F
:10230000FFF728BF121A2244F2E712EB0909294607
:10231000384638BF4A46FFF7EBFEB5E7D8F810302D
:10232000B34208D01444C8F81C00211AA960BDE8C3
:10233000F047FFF7F3BEBDE8F08700BF5024002050
:102340004024002000207047FEE700007047000096
:102350004FF0FF307047000002290CD0032904D051
:102360000129074818BF00207047032A05D80548EF
:1023700000EBC2007047044870470020704700BF60
:10238000E84500083C2200209C45000870B59AB042
:1023900005460846144601A900F0C2F801A8FEF758
:1023A00077FD431C0022C6B25B001046C5E900342D
:1023B00023700323023404F8013C01ABD1B2023490
:1023C0008E4201D81AB070BD13F8011B013204F817
:1023D000010C04F8021CF1E708B5302383F31188DF
:1023E0000348FFF70FFA002383F3118808BD00BFED
:1023F000B026002090F8803003F01F02012A07D198
:1024000090F881200B2A03D10023C0E91D3315E089
:1024100003F06003202B08D1B0F884302BB990F87A
:102420008120212A03D81F2A04D8FFF7CDB9222AF8
:10243000EBD0FAE7034A426707228267C3670120AD
:10244000704700BF3322002007B5052917D8DFE801
:1024500001F0191603191920302383F31188104A4B
:1024600001210190FFF776FA019802210D4AFFF74A
:1024700071FA0D48FFF792F9002383F3118803B036
:102480005DF804FB302383F311880748FFF75CF9FC
:10249000F2E7302383F311880348FFF773F9EBE782
:1024A0003C45000860450008B026002038B50C4DBA
:1024B0000C4C2A460C4904F10800FFF767FF05F1B0
:1024C000CA0204F110000949FFF760FF05F5CA725E
:1024D00004F118000649BDE83840FFF757BF00BFB8
:1024E000883F00203C2200201C45000826450008AB
:1024F0003145000870B5044608460D46FEF7C8FC95
:10250000C6B22046013403780BB9184670BD324676
:102510002946FEF7A9FC0028F3D10120F6E70000C8
:102520002DE9F84F05460C46FEF7B2FC2C49C6B221
:102530002846FFF7DFFF08B10236F6B229492846E0
:10254000FFF7D8FF08B11036F6B2632E0DD8DFF8CA
:102550009080DFF89090244FDFF894A0DFF894B0DB
:102560002E7846B92670BDE8F88F29462046BDE88A
:10257000F84F01F0FBBE252E2ED1072241462846FA
:10258000FEF772FC70B9DBF800300735093444F807
:10259000093CDBF8043044F8053C9BF8083004F8AB
:1025A000013CDDE7082249462846FEF75DFC98B964
:1025B000A21C0E4B197802320909C95D02F8041CED
:1025C00013F8011B01F00F015345C95D02F8031C0C
:1025D000F0D118340835C3E7013504F8016BBFE7C3
:1025E00008460008314500081A46000800E8F11FB7
:1025F0000CE8F11F10460008BFF34F8F044B1A6917
:102600005107FCD1D3F810215207F8D1704700BF11
:102610000020005208B50D4B1B78ABB9FFF7ECFF5B
:102620000B4BDA68D10704D50A4A5A6002F18832A6
:102630005A60D3F80C21D20706D5064AC3F8042104
:1026400002F18832C3F8042108BD00BFE641002032
:10265000002000522301674508B5114B1B78F3B9E0
:10266000104B1A69510703D5DA6842F04002DA606C
:10267000D3F81021520705D5D3F80C2142F04002BF
:10268000C3F80C21FFF7B8FF064BDA6842F00102ED
:10269000DA60D3F80C2142F00102C3F80C2108BD26
:1026A000E6410020002000520F289ABF00F580600C
:1026B00040040020704700004FF4003070470000D5
:1026C000102070470F2808B50BD8FFF7EDFF00F575
:1026D00000330268013204D104308342F9D1012071
:1026E00008BD0020FCE700000F2838B505463FD89C
:1026F000FFF782FF1F4CFFF78DFF4FF0FF330728D6
:102700006361C4F814311DD82361FFF775FF03021C
:1027100043F02403E360E36843F08003E36023694C
:102720005A07FCD42846FFF767FFFFF7BDFF4FF4B9
:10273000003100F0C5F92846FFF78EFFBDE83840AC
:10274000FFF7C0BFC4F81031FFF756FFA0F1080330
:102750001B0243F02403C4F80C31D4F80C3143F0CD
:102760008003C4F80C31D4F810315B07FBD4D9E7EF
:10277000002038BD002000522DE9F84F04460D46D8
:10278000104644EA0203DE0602D00020BDE8F88FBE
:1027900020F01F00DFF8D4B0DFF8D4A0FFF73AFF35
:1027A00005EB0008454503D10120FFF755FFEDE794
:1027B00020222946204601F0C9FD10B920342035D9
:1027C000F0E7234604F120021F68791CDDD10433B1
:1027D0009342F9D104F178432048214EB3F5801F8C
:1027E000204B38BF184603F1F80332BFD946D14613
:1027F0001E46FFF701FF0760A4EB050C336805F1E7
:102800001C0143F0020333602B1FD9F8007017F04E
:102810000507FAD153F8042F8B424CF80320F4D16A
:10282000BFF34F8FFFF7E8FE4FF0FF3303603368CD
:1028300023F002033360BFF34F8F0B4BC3F85C42AE
:10284000BFF34F8FBFF36F8F20222946204601F040
:102850007DFD0028B2D03846A7E700BF1421005202
:102860000C2000521420005200ED00E01020005215
:102870001021005210B5084C237828B11BB9FFF77E
:10288000C9FE0123237010BD002BFCD02070BDE8D1
:102890001040FFF7E1BE00BFE64100202DE9F04FF8
:1028A0000D4685B0814658B111F00D0614BF2022A7
:1028B000082211F00803019304D0431E03426AD09A
:1028C000002435E0002E37D009F11F0121F01F0947
:1028D0004FF00108324F05F00403DFF8D0A005EAFD
:1028E000080BBBF1000F32D07869C0072FD408F174
:1028F00001080C37B8F1060FF3D19EB9294D4946AE
:10290000A819019201F06AF9044600283AD1183654
:10291000019A782EF3D1494601F060F90446002867
:1029200030D1019A4946204801F058F9044668BB65
:10293000204605B0BDE8F08F0029C9D101462846E0
:10294000029201F04BF90446E0B9029AC0E713B1D4
:1029500078694107CBD5AC0702D578698007C6D521
:10296000019911B178690107C1D51820494600FBCA
:1029700008A0CDE9022301F031F90446DDE9022384
:102980000028B4D04A460021204601E04A460021F2
:10299000FEF786FACCE70246002E95D198E700BFF5
:1029A0002C46000818420020E84100200042002088
:1029B0000121FFF773BF0000F8B500231A461A6023
:1029C0000433B3F5806FFAD1114D01241827114E4D
:1029D00007FB046001342A6955F80C1F01F0EAF87E
:1029E000062CF5D137254FF4C0542046FFF7E0FF01
:1029F000014628B122460848BDE8F84001F0DAB89F
:102A0000C4EBC404013D4FEAD404EED1F8BD00BFCD
:102A10002C46000800420020E841002008B101F0E7
:102A20004FB970470244074BD2B210B5904200D163
:102A300010BD441C00B253F8200041F8040BE0B272
:102A4000F4E700BF504000580E4B30B51C6F240413
:102A500005D41C6F1C671C6F44F400441C670A4CAF
:102A600002442368D2B243F480732360074B904240
:102A700000D130BD441C51F8045B00B243F8205033
:102A8000E0B2F4E7004402580048025850400058B1
:102A900007B5012201A90020FFF7C4FF019803B088
:102AA0005DF804FB13B50446FFF7F2FFA04205D022
:102AB000012201A900200194FFF7C6FF02B010BD5A
:102AC0000144BFF34F8F064B884204D3BFF34F8FAF
:102AD000BFF36F8F7047C3F85C022030F4E700BF8C
:102AE00000ED00E0034B1A681AB9034AD2F8D0246B
:102AF0001A607047904200200040025808B5FFF766
:102B0000F1FF024B1868C0F3806008BD90420020BE
:102B10007047000070470000EFF3098305496833F0
:102B20004A6B22F001024A6383F30988002383F38E
:102B30001188704700EF00E0302080F3118862B602
:102B40000D4B0E4AD96821F4E0610904090C0A43CF
:102B50000B49DA60D3F8FC2042F08072C3F8FC2005
:102B6000084AC2F8B01F116841F00101116020222B
:102B7000DA7783F82200704700ED00E00003FA05E1
:102B800055CEACC5001000E0302310B583F311889A
:102B90000E4B5B6813F4006314D0F1EE103AEFF3C0
:102BA00009844FF08073683CE361094BDB6B23665B
:102BB00084F30988FFF7DCF910B1064BA36110BD5F
:102BC000054BFBE783F31188F9E700BF00ED00E058
:102BD00000EF00E02F0400083204000870B5BFF3D6
:102BE0004F8FBFF36F8F1A4A0021C2F85012BFF304
:102BF0004F8FBFF36F8F536943F400335361BFF3BB
:102C00004F8FBFF36F8FC2F88410BFF34F8FD2F88E
:102C1000803043F6E074C3F3C900C3F34E335B0165
:102C200003EA0406014646EA81750139C2F860529A
:102C3000F9D2203B13F1200FF2D1BFF34F8F53692C
:102C400043F480335361BFF34F8FBFF36F8F70BD79
:102C500000ED00E0FEE70000214B2248224A70B55B
:102C6000904237D3214BC11EDA1C121A22F0030204
:102C70008B4238BF00220021FEF712F91C4A0023C4
:102C8000C2F88430BFF34F8FD2F8803043F6E0743F
:102C9000C3F3C900C3F34E335B0103EA04060146E4
:102CA00046EA81750139C2F86C52F9D2203B13F122
:102CB000200FF2D1BFF34F8FBFF36F8FBFF34F8F52
:102CC000BFF36F8F0023C2F85032BFF34F8FBFF3B3
:102CD0006F8F70BD53F8041B40F8041BC0E700BFA2
:102CE0004C48000804440020044400200444002010
:102CF00000ED00E0074BD3F8D81021EA0001C3F83B
:102D0000D810D3F8002122EA0002C3F80021D3F83A
:102D1000003170470044025870B5D0E924430022C6
:102D20004FF0FF359E6804EB42135101D3F80009C0
:102D3000002805DAD3F8000940F08040C3F8000904
:102D4000D3F8000B002805DAD3F8000B40F08040E0
:102D5000C3F8000B013263189642C3F80859C3F850
:102D6000085BE0D24FF00113C4F81C3870BD0000BE
:102D7000890141F02001016103699B06FCD4122006
:102D8000FFF738B910B50A4C2046FEF7C1FD094BD4
:102D9000C4F89030084BC4F89430084C2046FEF735
:102DA000B7FD074BC4F89030064BC4F8943010BD03
:102DB000944200200000084098460008304300205C
:102DC00000000440A446000870B503780546012BB6
:102DD0005CD1434BD0F89040984258D1414B0E21E2
:102DE0006520D3F8D82042F00062C3F8D820D3F889
:102DF000002142F00062C3F80021D3F80021D3F88B
:102E0000802042F00062C3F88020D3F8802022F0B6
:102E10000062C3F88020D3F88030FEF7A5FB324B68
:102E2000E360324BC4F800380023D5F89060C4F852
:102E3000003EC02323604FF40413A3633369002BC7
:102E4000FCDA01230C203361FFF7D4F83369DB0788
:102E5000FCD41220FFF7CEF83369002BFCDA0026F1
:102E60002846A660FFF758FF6B68C4F81068DB6857
:102E7000C4F81468C4F81C6883BB1D4BA3614FF0F1
:102E8000FF336361A36843F00103A36070BD194B76
:102E90009842C9D1134B4FF08060D3F8D82042F04C
:102EA0000072C3F8D820D3F8002142F00072C3F8B2
:102EB0000021D3F80021D3F8802042F00072C3F83B
:102EC0008020D3F8802022F00072C3F88020D3F84D
:102ED0008030FFF70FFF0E214D209EE7064BCDE718
:102EE0009442002000440258401400400300200295
:102EF000003C30C030430020083C30C0F8B5D0F86A
:102F00009040054600214FF000662046FFF730FF55
:102F1000D5F8941000234FF001128F684FF0FF3066
:102F2000C4F83438C4F81C2804EB431201339F4220
:102F3000C2F80069C2F8006BC2F80809C2F8080BB1
:102F4000F2D20B68D5F89020C5F898306362102350
:102F50001361166916F01006FBD11220FFF74AF82C
:102F6000D4F8003823F4FE63C4F80038A36943F4AE
:102F7000402343F01003A3610923C4F81038C4F8B8
:102F800014380B4BEB604FF0C043C4F8103B094BB7
:102F9000C4F8003BC4F81069C4F80039D5F898307B
:102FA00003F1100243F48013C5F89820A362F8BD22
:102FB0007446000840800010D0F8902090F88A10E5
:102FC000D2F8003823F4FE6343EA0113C2F8003854
:102FD000704700002DE9F84300EB8103D0F89050D2
:102FE0000C468046DA680FFA81F94801166806F047
:102FF0000306731E022B05EB41134FF0000194BF33
:10300000B604384EC3F8101B4FF0010104F1100351
:1030100098BF06F1805601FA03F3916998BF06F54F
:10302000004600293AD0578A04F158013743490134
:103030006F50D5F81C180B430021C5F81C382B180D
:103040000127C3F81019A7405369611E9BB3138A67
:10305000928B9B08012A88BF5343D8F89820981870
:1030600042EA034301F140022146C8F8980028468D
:1030700005EB82025360FFF77BFE08EB8900C36813
:103080001B8A43EA845348341E4364012E51D5F809
:103090001C381F43C5F81C78BDE8F88305EB4917B9
:1030A000D7F8001B21F40041C7F8001BD5F81C1805
:1030B00021EA0303C0E704F13F030B4A28462146F7
:1030C00005EB83035A60FFF753FE05EB4910D0F878
:1030D000003923F40043C0F80039D5F81C3823EA3E
:1030E0000707D7E70080001000040002D0F8942002
:1030F0001268C0F89820FFF70FBE00005831D0F8D2
:10310000903049015B5813F4004004D013F4001FC1
:103110000CBF0220012070474831D0F8903049019F
:103120005B5813F4004004D013F4001F0CBF0220BE
:103130000120704700EB8101CB68196A0B681360AE
:103140004B6853607047000000EB810330B5DD68C9
:10315000AA691368D36019B9402B84BF4023136058
:103160006B8A1468D0F890201C4402EB4110013C9B
:1031700009B2B4FBF3F46343033323F0030343EADC
:10318000C44343F0C043C0F8103B2B6803F0030373
:10319000012B0ED1D2F8083802EB411013F4807FD6
:1031A000D0F8003B14BF43F0805343F00053C0F805
:1031B000003B02EB4112D2F8003B43F00443C2F85B
:1031C000003B30BD2DE9F041D0F8906005460C463B
:1031D00006EB4113D3F8087B3A07C3F8087B08D500
:1031E000D6F814381B0704D500EB8103DB685B6855
:1031F0009847FA071FD5D6F81438DB071BD505EB1F
:103200008403D968CCB98B69488A5A68B2FBF0F656
:1032100000FB16228AB91868DA6890420DD2121A99
:10322000C3E90024302383F3118821462846FFF7A1
:103230008BFF84F31188BDE8F081012303FA04F2C7
:103240006B8923EA02036B81CB68002BF3D0214604
:103250002846BDE8F041184700EB81034A0170B5EC
:10326000DD68D0F890306C692668E66056BB1A4479
:103270004FF40020C2F810092A6802F00302012A64
:103280000AB20ED1D3F8080803EB421410F4807F81
:10329000D4F8000914BF40F0805040F00050C4F84A
:1032A000000903EB4212D2F8000940F00440C2F8D2
:1032B00000090122D3F8340802FA01F10143C3F8EE
:1032C000341870BD19B9402E84BF4020206020689A
:1032D0001A442E8A8419013CB4FBF6F440EAC44037
:1032E00040F00050C6E700002DE9F843D0F89060A8
:1032F00005460C464F0106EB4113D3F8088918F038
:10330000010FC3F808891CD0D6F81038DB0718D590
:1033100000EB8103D3F80CC0DCF81430D3F800E0E4
:10332000DA68964530D2A2EB0E024FF000091A601F
:10333000C3F80490302383F31188FFF78DFF89F3DE
:10334000118818F0800F1DD0D6F834380126A64019
:10335000334217D005EB84030134D5F89050D3F8ED
:103360000CC0E4B22F44DCF8142005EB0434D2F88E
:1033700000E05168714514D3D5F8343823EA0606C5
:10338000C5F83468BDE8F883012303FA01F2038924
:1033900023EA02030381DCF80830002BD1D09847E0
:1033A000CFE7AEEB0103BCF81000834228BF034611
:1033B000D7F8180980B2B3EB800FE3D89068A0F17A
:1033C000040959F8048FC4F80080A0EB0908984458
:1033D000B8F1040FF5D818440B4490605360C8E767
:1033E0002DE9F84FD0F8905004466E69AB691E4045
:1033F00016F480586E6103D0BDE8F84FFEF7F8BAB6
:10340000002E12DAD5F8003E9B0705D0D5F8003E15
:1034100023F00303C5F8003ED5F80438204623F016
:103420000103C5F80438FEF711FB370505D5204622
:10343000FFF772FC2046FEF7F7FAB0040CD5D5F87A
:10344000083813F0060FEB6823F470530CBF43F4F5
:10345000105343F4A053EB6031071BD56368DB685E
:103460001BB9AB6923F00803AB612378052B0CD1A2
:10347000D5F8003E9A0705D0D5F8003E23F00303A7
:10348000C5F8003E2046FEF7E1FA6368DB680BB141
:1034900020469847F30200F1BA80B70226D5D4F847
:1034A000909000274FF0010A09EB4712D2F8003B39
:1034B00003F44023B3F5802F11D1D2F8003B002B49
:1034C0000DDA62890AFA07F322EA0303638104EB47
:1034D0008703DB68DB6813B139462046984701371C
:1034E000D4F89430FFB29B689F42DDD9F00619D51D
:1034F000D4F89000026AC2F30A1702F00F0302F434
:10350000F012B2F5802F00F0CA80B2F5402F09D139
:1035100004EB8303002200F58050DB681B6A9742AE
:1035200040F0B0803003D5F8185835D5E90303D5FD
:1035300000212046FFF746FEAA0303D501212046BD
:10354000FFF740FE6B0303D502212046FFF73AFE4A
:103550002F0303D503212046FFF734FEE80203D5ED
:1035600004212046FFF72EFEA90203D5052120469F
:10357000FFF728FE6A0203D506212046FFF722FE48
:103580002B0203D507212046FFF71CFEEF0103D5D0
:1035900008212046FFF716FE700340F1A780E907D7
:1035A00003D500212046FFF79FFEAA0703D501217E
:1035B0002046FFF799FE6B0703D502212046FFF74F
:1035C00093FE2F0703D503212046FFF78DFEEE065D
:1035D00003D504212046FFF787FEA80603D5052161
:1035E0002046FFF781FE690603D506212046FFF736
:1035F0007BFE2A0603D507212046FFF775FEEB0563
:1036000074D520460821BDE8F84FFFF76DBED4F809
:1036100090904FF0000B4FF0010AD4F894305FFA0D
:103620008BF79B689F423FF638AF09EB4713D3F8FF
:10363000002902F44022B2F5802F20D1D3F80029CE
:10364000002A1CDAD3F8002942F09042C3F800297E
:10365000D3F80029002AFBDB3946D4F89000FFF7A5
:1036600087FB22890AFA07F322EA0303238104EB8A
:103670008703DB689B6813B13946204698470BF1F6
:10368000010BCAE7910701D1D0F80080072A02F1A7
:1036900001029CBF03F8018B4FEA18283FE704EBB7
:1036A000830300F58050DA68D2F818C0DCF80820EF
:1036B000DCE9001CA1EB0C0C00218F4208D1DB6877
:1036C0009B699A683A449A605A683A445A6029E772
:1036D00011F0030F01D1D0F800808C4501F10101F8
:1036E00084BF02F8018B4FEA1828E6E7BDE8F88F9F
:1036F00008B50348FFF774FEBDE80840FFF744BA79
:103700009442002008B50348FFF76AFEBDE8084070
:10371000FFF73ABA30430020D0F8903003EB411164
:10372000D1F8003B43F40013C1F8003B70470000A0
:10373000D0F8903003EB4111D1F8003943F4001375
:10374000C1F8003970470000D0F8903003EB411108
:10375000D1F8003B23F40013C1F8003B7047000090
:10376000D0F8903003EB4111D1F8003923F4001365
:10377000C1F800397047000030B50433039C017272
:10378000002104FB0325C160C0E90653049B0363C9
:10379000059BC0E90000C0E90422C0E90842C0E975
:1037A0000A11436330BD00000022416AC260C0E9D3
:1037B0000411C0E90A226FF00101FEF78BBC000082
:1037C000D0E90432934201D1C2680AB9181D70478A
:1037D00000207047036919600021C2680132C2608D
:1037E000C269134482699342036124BF436A03613F
:1037F000FEF764BC38B504460D46E3683BB1626928
:103800000020131D1268A3621344E36207E0237AC9
:1038100033B929462046FEF741FC0028EDDA38BDD1
:103820006FF00100FBE70000C368C269013BC360A1
:103830004369134482699342436124BF436A4361ED
:1038400000238362036B03B11847704770B53023C0
:10385000044683F31188866A3EB9FFF7CBFF05461D
:1038600018B186F31188284670BDA36AE26A13F87E
:10387000015B9342A36202D32046FFF7D5FF0023EA
:1038800083F31188EFE700002DE9F84F04460E4658
:10389000174698464FF0300989F311880025AA464B
:1038A000D4F828B0BBF1000F09D141462046FFF7FC
:1038B000A1FF20B18BF311882846BDE8F88FD4E929
:1038C0000A12A7EB050B521A934528BF9346BBF18A
:1038D000400F1BD9334601F1400251F8040B9142CD
:1038E00043F8040BF9D1A36A403640354033A36254
:1038F000D4E90A239A4202D32046FFF795FF8AF3C0
:103900001188BD42D8D289F31188C9E730465A469A
:10391000FDF7A0FAA36A5E445D445B44A362E7E757
:1039200010B5029C0433017203FB0421C460C0E99A
:1039300006130023C0E90A33039B0363049BC0E919
:103940000000C0E90422C0E90842436310BD000042
:10395000026A6FF00101C260426AC0E904220022DB
:10396000C0E90A22FEF7B6BBD0E904239A4201D18E
:10397000C26822B9184650F8043B0B607047002318
:103980001846FAE7C3680021C2690133C36043697E
:10399000134482699342436124BF436A4361FEF743
:1039A0008DBB000038B504460D46E3683BB1236982
:1039B00000201A1DA262E2691344E36207E0237A41
:1039C00033B929462046FEF769FB0028EDDA38BDF9
:1039D0006FF00100FBE7000003691960C268013A5B
:1039E000C260C269134482699342036124BF436A7F
:1039F000036100238362036B03B118477047000023
:103A000070B530230D460446114683F31188866A4B
:103A10002EB9FFF7C7FF10B186F3118870BDA36AF6
:103A20001D70A36AE26A01339342A36204D3E16981
:103A300020460439FFF7D0FF002080F31188EDE71E
:103A40002DE9F84F04460D46904699464FF0300A4E
:103A50008AF311880026B346A76A4FB94946204623
:103A6000FFF7A0FF20B187F311883046BDE8F88F3B
:103A7000D4E90A073A1AA8EB0607974228BF174667
:103A8000402F1BD905F1400355F8042B9D4240F807
:103A9000042BF9D1A36A40364033A362D4E90A2348
:103AA0009A4204D3E16920460439FFF795FF8BF36E
:103AB00011884645D9D28AF31188CDE729463A467E
:103AC000FDF7C8F9A36A3D443E443B44A362E5E7E1
:103AD000D0E904239A4217D1C3689BB1836A8BB1A2
:103AE000043B9B1A0ED01360C368013BC360C369DB
:103AF0001A4483699A42026124BF436A0361002326
:103B000083620123184670470023FBE700F060BA88
:103B1000014B586A704700BF000C0040034B002265
:103B200058631A610222DA60704700BF000C00403F
:103B3000014B0022DA607047000C0040014B5863D3
:103B4000704700BF000C0040024B034A1A60034A52
:103B50005A607047E443002008440020000002201F
:103B6000074B494210B55C68201A08401968821A50
:103B70008A4203D3A24201D85A6010BD0020FCE75C
:103B8000E443002008B5302383F31188FFF7E8FFF2
:103B9000002383F3118808BD04480121044B03600E
:103BA0000023C0E901330C3000F016B9EC430020CB
:103BB000853B0008CB1D083A23F00703591A521A17
:103BC000012110B4D2080024C0E9004384600C3005
:103BD0001C605A605DF8044B00F0FEB82DE9F84F08
:103BE000364ECD1D0F46002818BF0646082A4FEA5C
:103BF000D50538BF082206F10C08341D9146404611
:103C000000F006F909F10701C9F1000E2246246807
:103C10006CB9404600F006F93368CBB30822494638
:103C2000E8009847044698B340E9026730E004EBA7
:103C3000010CD4F804A00CEA0E0C0AF10100ACF15E
:103C4000080304EBC0009842E0D9A0EB0C0CB5EBE4
:103C5000EC0F4FEAEC0BD9D89C421CD204F10802BD
:103C6000AB45A3EB02024FEAE202626009D9691C8C
:103C7000ED43206803EBC1025D44556043F8310019
:103C800022601C465F60404644F8086B00F0CAF8AA
:103C90002046BDE8F88FAA45216802D1116023466D
:103CA000EFE7013504EBC50344F8351003F10801D3
:103CB000401AC01058601360F1E700BFEC430020C9
:103CC000F8B550F8043C044650F8085CA0F108062A
:103CD00007332F1D0C35DB0840F8043C284600F064
:103CE00097F83B469F421A6801D0B34228D20AB1E6
:103CF000964225D244F8082C54F8042C1E60013258
:103D000054F8081C06EBC200814206D14868024400
:103D100044F8042C0A6844F8082C5868411C03EB4A
:103D2000C1018E4207D154F8042C013202445A607A
:103D300054F8082C1A602846BDE8F84000F072B824
:103D40001346CFE7FEE7000070B51B4B0025044685
:103D500086B058600E4685620163FEF7EDFE04F101
:103D60001003A560E562C4E904334FF0FF33C4E9F2
:103D70000044C4E90635FFF7CBFE2B46024604F1AA
:103D800034012046C4E9082380230C4A2565FEF748
:103D90003BF901230A4AE0600092037568467268A5
:103DA0000192B268CDE90223064BCDE90435FEF756
:103DB00053F906B070BD00BFA8260020B046000829
:103DC000B5460008453D0008024AD36A1843D06250
:103DD000704700BF40240020C0E9000081607047A8
:103DE0008368013B002B10B583600CDA074BDC685D
:103DF0004368A061206063601C6044600520FEF79A
:103E00005FF8A06910BD0020FCE700BF402400203F
:103E100008B5302383F31188FFF7E2FF002383F313
:103E2000118808BD08B5302383F3118883680133F6
:103E3000002B836007DC036800211A680260506071
:103E40001846FEF773F8002383F3118808BD0000BD
:103E50004B6843608B688360CB68C3600B694361C8
:103E60004B6903628B6943620B6803607047000013
:103E700008B53C4B40F2FF713B48D3F888200A4319
:103E8000C3F88820D3F8882022F4FF6222F00702CA
:103E9000C3F88820D3F88820D3F8E0200A43C3F879
:103EA000E020D3F808210A43C3F808212F4AD3F8A9
:103EB00008311146FFF7CCFF00F5806002F11C01CC
:103EC000FFF7C6FF00F5806002F13801FFF7C0FF81
:103ED00000F5806002F15401FFF7BAFF00F5806041
:103EE00002F17001FFF7B4FF00F5806002F18C0170
:103EF000FFF7AEFF00F5806002F1A801FFF7A8FF11
:103F000000F5806002F1C401FFF7A2FF00F58060B8
:103F100002F1E001FFF79CFF00F5806002F1FC0177
:103F2000FFF796FF02F58C7100F58060FFF790FFB8
:103F300000F01AF90E4BD3F8902242F00102C3F8B8
:103F40009022D3F8942242F00102C3F89422052271
:103F5000C3F898204FF06052C3F89C20054AC3F87C
:103F6000A02008BD0044025800000258BC460008CA
:103F700000ED00E01F00080308B500F0D5F9FEF7DA
:103F80001DF8104BD3F8DC2042F04002C3F8DC20CF
:103F9000D3F8042122F04002C3F80421D3F80431FD
:103FA000094B1A6842F008021A601A6842F00402CB
:103FB0001A60FEF797FDFEF7FFFCBDE80840FEF72C
:103FC00075BA00BF0044025800180248704700004C
:103FD000114BD3F8E82042F00802C3F8E820D3F8E8
:103FE000102142F00802C3F810210C4AD3F8103116
:103FF000D36B43F00803D363EF22094B9A624FF06F
:10400000FF32DA6200229A615A63DA605A60012252
:104010005A611A60704700BF004402580010005CEB
:10402000000C0040094A08B51169D3680B40D9B2A9
:104030009B076FEA0101116107D5302383F31188D3
:10404000FDF7D6FF002383F3118808BD000C004064
:10405000064BD3F8DC200243C3F8DC20D3F804215C
:104060001043C3F80401D3F80431704700440258E8
:1040700008B53C4B4FF0FF31D3F8802062F000428E
:10408000C3F88020D3F8802002F00042C3F88020DB
:10409000D3F88020D3F88420C3F88410D3F8842088
:1040A0000022C3F88420D3F88400D86F40F0FF408A
:1040B00040F4FF0040F4DF4040F07F00D867D86F45
:1040C00020F0FF4020F4FF0020F4DF4020F07F00CC
:1040D000D867D86FD3F888006FEA40506FEA505025
:1040E000C3F88800D3F88800C0F30A00C3F888003A
:1040F000D3F88800D3F89000C3F89010D3F890005C
:10410000C3F89020D3F89000D3F89400C3F894102B
:10411000D3F89400C3F89420D3F89400D3F898000F
:10412000C3F89810D3F89800C3F89820D3F89800F3
:10413000D3F88C00C3F88C10D3F88C00C3F88C2013
:10414000D3F88C00D3F89C00C3F89C10D3F89C10D3
:10415000C3F89C20D3F89C30FDF72AF9BDE808404D
:1041600000F0D6B80044025808B5554BD3F8F420F7
:1041700042F00202C3F8F420D3F81C2142F00202FC
:10418000C3F81C210222D3F81C314E4BDA605A6866
:104190009104FCD54C4A4D491A6001229A60D960BD
:1041A000002119614FF440419961494BDA6203F5EE
:1041B00011339A699204FCD51A6842F480721A602D
:1041C0003F4B1A6F12F4407F04D04FF480321A67CD
:1041D00000221A671A6842F001021A60384B1A6806
:1041E0005007FCD500221A611A6912F03802FBD17F
:1041F000012119604FF0804159604FF00051D960A2
:104200005A67344ADA62344A1A611A6842F48032D0
:104210001A602B4B1A689103FCD51A6842F480523D
:104220001A601A689204FCD52C4A2D499A62002221
:104230005A63196301F57A01DA6301F2D3119963C4
:104240005A64284A1A64284ADA621A6842F0A85264
:104250001A601B4B1A6802F02852B2F1285FF9D19C
:1042600048229A614FF48862DA6140221A621F4A3A
:10427000DA641F4A1A651F4A5A651F4A9A65342331
:104280001E4A1360136803F00F03042BFAD10C4A83
:10429000136943F003031361136903F03803182B08
:1042A000FAD14FF00050FFF7D3FE4FF08040FFF7F8
:1042B000CFFE4FF00040BDE80840FFF7C9BE00BF89
:1042C000004402580048025800C000F002000001FB
:1042D000000400580000FF01008890081210200020
:1042E00077020B01470E0508DD0BBF0120000020FF
:1042F000000001100910E000000101100020005230
:1043000008B5FFF78FFEBDE80840FEF73DBC000092
:1043100009217A2008B5FDF727F907213220BDE8E9
:104320000840FDF721B9000008B5FFF7A1FE00F035
:104330000BF8FDF7EBFAFDF7BDF9FFF747FEBDE817
:104340000840FFF7E3BB00007047000010B50139DB
:104350000244904201D1002005E0037811F8014F9A
:10436000A34201D0181B10BD0130F2E7034611F83B
:10437000012B03F8012B002AF9D1704763636365B1
:1043800065373436633264643234633800000000C9
:1043900012100000121100001213000053544D338C
:1043A0003248373F3F3F0053544D3332483733781C
:1043B0002F3732780053544D3332483734332F3748
:1043C00035332F373530000001105A0003105900E3
:1043D000012058000320560010000240080002404F
:1043E0000008024000000B002800024008000240C4
:1043F0000408024006010C00400002400800024090
:104400000808024010020D00580002400800024057
:104410000C08024016030E00700002400C0002401F
:104420001008024000040F00880002400C00024007
:104430001408024006051000A00002400C000240D3
:104440001808024010061100B80002400C0002409B
:104450001C08024016072F00100402400804024006
:1044600020080240000838002804024008040240E6
:1044700024080240060939004004024008040240B2
:1044800028080240100A3A0058040240080402407A
:104490002C080240160B3B00700402400C04024042
:1044A00030080240000C3C00880402400C0402402A
:1044B00034080240060D4400A00402400C040240EF
:1044C00038080240100E4500B80402400C040240B7
:1044D0003C080240160F460000000000311600089C
:1044E0001D16000859160008451600085116000848
:1044F0003D16000829160008151600086516000864
:104500000000000001000000000000006330000017
:104510000C45000898240020A826002041726475EC
:1045200050696C6F740025424F415244252D424C16
:10453000002553455249414C25000000020000006F
:104540000000000051180008C11800084000400099
:10455000583F0020683F00200200000000000000DB
:10456000030000000000000009190008000000001E
:1045700010000000783F0020000000000100000053
:1045800000000000944200200101020049240008BC
:1045900059230008F5230008D92300084300000030
:1045A000A445000809024300020100C032090400CA
:1045B0000001020201000524001001052401000190
:1045C000042402020524060001070582030800FFF7
:1045D00009040100020A0000000705010240000072
:1045E000070581024000000012000000F0450008AD
:1045F000120110010200004009124157000201029D
:10460000030100000403090425424F4152442500E0
:1046100048414B524348373433003031323334351C
:1046200036373839414243444546000000000020F7
:104630000000020002000000000000300000040042
:104640000800000000000024000008000400000032
:104650000004000000FC0000020000000000043024
:104660000080000008000000000000380000010089
:104670000100000000000000651A00081D1D000870
:10468000C91D000840004000CC430020CC4300205E
:1046900001000000DC430020800000004001000019
:1046A00008000000000100000010000008000000E9
:1046B0006D61696E0069646C650000000000802A0D
:1046C00000000000AAAAAAAA00000024FFFF000020
:1046D0000000000000A00A00000000000000000030
:1046E000AAAAAAAA00000000FFFF00000000000024
:1046F000000000000000004400000000AAAAAAAACE
:1047000000000044FFFF0000000000000000000067
:104710000000500000000000AAAAAAAA00000000A1
:10472000FFF3000000000000000000001001000086
:1047300000000000AAAAAAAA10000000EFFF0000D3
:104740000000000000000000000000000000000069
:10475000AAAAAAAA00000000FFFF000000000000B3
:10476000000000000000000000000000AAAAAAAAA1
:1047700000000000FFFF000000000000000000003B
:104780000000000000000000AAAAAAAA0000000081
:10479000FFFF00000000000000000000000000001B
:1047A00000000000AAAAAAAA00000000FFFF000063
:1047B00000000000000000000000000000000000F9
:1047C000AAAAAAAA00000000FFFF00000000000043
:1047D000000000000000000000000000AAAAAAAA31
:1047E00000000000FFFF00000000000000000000CB
:1047F0006A1000000000000000001A000000000025
:10480000FF000000000000009C430008830400003B
:10481000A743000850040000B543000800960000BC
:1048200000000800960000000008000004000000DE
:104830000446000800000000000000000000000026
:0C4840000000000000000000000000006C
:00000001FF
